{
  "contractName": "Cointoss",
  "abi": [
    {
      "anonymous": false,
      "inputs": [
        {
          "indexed": false,
          "internalType": "bytes32",
          "name": "queryId",
          "type": "bytes32"
        }
      ],
      "name": "LogNewProvableQuery",
      "type": "event"
    },
    {
      "anonymous": false,
      "inputs": [
        {
          "indexed": false,
          "internalType": "uint256",
          "name": "betNumber",
          "type": "uint256"
        },
        {
          "indexed": false,
          "internalType": "uint256",
          "name": "side",
          "type": "uint256"
        }
      ],
      "name": "betAdded",
      "type": "event"
    },
    {
      "anonymous": false,
      "inputs": [
        {
          "indexed": false,
          "internalType": "address",
          "name": "gambler",
          "type": "address"
        },
        {
          "indexed": false,
          "internalType": "bool",
          "name": "win",
          "type": "bool"
        }
      ],
      "name": "betResolved",
      "type": "event"
    },
    {
      "anonymous": false,
      "inputs": [
        {
          "indexed": false,
          "internalType": "address",
          "name": "gambler",
          "type": "address"
        }
      ],
      "name": "betReverted",
      "type": "event"
    },
    {
      "anonymous": false,
      "inputs": [
        {
          "indexed": false,
          "internalType": "uint256",
          "name": "randomNumber",
          "type": "uint256"
        }
      ],
      "name": "generatedRandomNumber",
      "type": "event"
    },
    {
      "anonymous": false,
      "inputs": [
        {
          "indexed": false,
          "internalType": "string",
          "name": "description",
          "type": "string"
        }
      ],
      "name": "logNewProvableQuery",
      "type": "event"
    },
    {
      "anonymous": false,
      "inputs": [
        {
          "indexed": false,
          "internalType": "uint256",
          "name": "amount",
          "type": "uint256"
        }
      ],
      "name": "profitWithdrawn",
      "type": "event"
    },
    {
      "anonymous": false,
      "inputs": [
        {
          "indexed": false,
          "internalType": "bytes32",
          "name": "queryId",
          "type": "bytes32"
        }
      ],
      "name": "proofVerificationFailed",
      "type": "event"
    },
    {
      "anonymous": false,
      "inputs": [
        {
          "indexed": false,
          "internalType": "uint256",
          "name": "newBalance",
          "type": "uint256"
        }
      ],
      "name": "topUpSuccessful",
      "type": "event"
    },
    {
      "anonymous": false,
      "inputs": [
        {
          "indexed": false,
          "internalType": "uint256",
          "name": "newBalance",
          "type": "uint256"
        }
      ],
      "name": "topUpUnsuccessful",
      "type": "event"
    },
    {
      "constant": true,
      "inputs": [],
      "name": "balance",
      "outputs": [
        {
          "internalType": "uint256",
          "name": "",
          "type": "uint256"
        }
      ],
      "payable": false,
      "stateMutability": "view",
      "type": "function"
    },
    {
      "constant": true,
      "inputs": [],
      "name": "latestNumber",
      "outputs": [
        {
          "internalType": "uint256",
          "name": "",
          "type": "uint256"
        }
      ],
      "payable": false,
      "stateMutability": "view",
      "type": "function"
    },
    {
      "constant": true,
      "inputs": [],
      "name": "owner",
      "outputs": [
        {
          "internalType": "address",
          "name": "",
          "type": "address"
        }
      ],
      "payable": false,
      "stateMutability": "view",
      "type": "function"
    },
    {
      "constant": true,
      "inputs": [],
      "name": "testInt",
      "outputs": [
        {
          "internalType": "uint256",
          "name": "",
          "type": "uint256"
        }
      ],
      "payable": false,
      "stateMutability": "view",
      "type": "function"
    },
    {
      "constant": true,
      "inputs": [],
      "name": "getBalance",
      "outputs": [
        {
          "internalType": "uint256",
          "name": "",
          "type": "uint256"
        }
      ],
      "payable": false,
      "stateMutability": "view",
      "type": "function"
    },
    {
      "constant": false,
      "inputs": [],
      "name": "topUp",
      "outputs": [
        {
          "internalType": "uint256",
          "name": "",
          "type": "uint256"
        }
      ],
      "payable": true,
      "stateMutability": "payable",
      "type": "function"
    },
    {
      "constant": false,
      "inputs": [],
      "name": "random",
      "outputs": [
        {
          "internalType": "bytes32",
          "name": "",
          "type": "bytes32"
        }
      ],
      "payable": true,
      "stateMutability": "payable",
      "type": "function"
    },
    {
      "constant": false,
      "inputs": [],
      "name": "withdrawAll",
      "outputs": [
        {
          "internalType": "uint256",
          "name": "",
          "type": "uint256"
        }
      ],
      "payable": false,
      "stateMutability": "nonpayable",
      "type": "function"
    },
    {
      "constant": false,
      "inputs": [],
      "name": "withdrawProfit",
      "outputs": [
        {
          "internalType": "uint256",
          "name": "",
          "type": "uint256"
        }
      ],
      "payable": false,
      "stateMutability": "nonpayable",
      "type": "function"
    },
    {
      "constant": false,
      "inputs": [
        {
          "internalType": "uint256",
          "name": "side",
          "type": "uint256"
        }
      ],
      "name": "createBet",
      "outputs": [],
      "payable": true,
      "stateMutability": "payable",
      "type": "function"
    },
    {
      "constant": true,
      "inputs": [],
      "name": "getBetSummary",
      "outputs": [
        {
          "internalType": "uint256",
          "name": "totalBets",
          "type": "uint256"
        },
        {
          "internalType": "uint256",
          "name": "totalWins",
          "type": "uint256"
        },
        {
          "internalType": "uint256",
          "name": "profit",
          "type": "uint256"
        },
        {
          "internalType": "uint256",
          "name": "currentBetSide",
          "type": "uint256"
        },
        {
          "internalType": "uint256",
          "name": "currentBetAmount",
          "type": "uint256"
        }
      ],
      "payable": false,
      "stateMutability": "view",
      "type": "function"
    },
    {
      "constant": false,
      "inputs": [
        {
          "internalType": "bytes32",
          "name": "_myid",
          "type": "bytes32"
        },
        {
          "internalType": "string",
          "name": "_result",
          "type": "string"
        }
      ],
      "name": "__callback",
      "outputs": [],
      "payable": false,
      "stateMutability": "nonpayable",
      "type": "function"
    },
    {
      "constant": false,
      "inputs": [
        {
          "internalType": "bytes32",
          "name": "_queryId",
          "type": "bytes32"
        },
        {
          "internalType": "string",
          "name": "_result",
          "type": "string"
        },
        {
          "internalType": "bytes",
          "name": "_proof",
          "type": "bytes"
        }
      ],
      "name": "__callback",
      "outputs": [],
      "payable": false,
      "stateMutability": "nonpayable",
      "type": "function"
    }
  ],
  "bytecode": "0x60806040526001600855336000806101000a81548173ffffffffffffffffffffffffffffffffffffffff021916908373ffffffffffffffffffffffffffffffffffffffff1602179055506149ad806100586000396000f3fe6080604052600436106100c15760003560e01c80638da5cb5b1161007f578063b69ef8a811610059578063b69ef8a814610450578063cfbe50c51461047b578063dc29f1de146104c2578063dc34b0aa146104e0576100c1565b80638da5cb5b146103a0578063959499b6146103f7578063ac793a6014610422576100c1565b8062e5561d146100c657806312065fe0146100f157806327dc297e1461011c57806338bbfa50146101ee5780635ec01e4d14610357578063853828b614610375575b600080fd5b3480156100d257600080fd5b506100db61050b565b6040518082815260200191505060405180910390f35b3480156100fd57600080fd5b50610106610511565b6040518082815260200191505060405180910390f35b34801561012857600080fd5b506101ec6004803603604081101561013f57600080fd5b81019080803590602001909291908035906020019064010000000081111561016657600080fd5b82018360208201111561017857600080fd5b8035906020019184600183028401116401000000008311171561019a57600080fd5b91908080601f016020809104026020016040519081016040528093929190818152602001838380828437600081840152601f19601f82011690508083019250505050505050919291929050505061051b565b005b3480156101fa57600080fd5b506103556004803603606081101561021157600080fd5b81019080803590602001909291908035906020019064010000000081111561023857600080fd5b82018360208201111561024a57600080fd5b8035906020019184600183028401116401000000008311171561026c57600080fd5b91908080601f016020809104026020016040519081016040528093929190818152602001838380828437600081840152601f19601f820116905080830192505050505050509192919290803590602001906401000000008111156102cf57600080fd5b8201836020820111156102e157600080fd5b8035906020019184600183028401116401000000008311171561030357600080fd5b91908080601f016020809104026020016040519081016040528093929190818152602001838380828437600081840152601f19601f82011690508083019250505050505050919291929050505061055e565b005b61035f6106c9565b6040518082815260200191505060405180910390f35b34801561038157600080fd5b5061038a610729565b6040518082815260200191505060405180910390f35b3480156103ac57600080fd5b506103b56107e1565b604051808273ffffffffffffffffffffffffffffffffffffffff1673ffffffffffffffffffffffffffffffffffffffff16815260200191505060405180910390f35b34801561040357600080fd5b5061040c610806565b6040518082815260200191505060405180910390f35b61044e6004803603602081101561043857600080fd5b810190808035906020019092919050505061091b565b005b34801561045c57600080fd5b50610465610dd0565b6040518082815260200191505060405180910390f35b34801561048757600080fd5b50610490610dd6565b604051808681526020018581526020018481526020018381526020018281526020019550505050505060405180910390f35b6104ca610f43565b6040518082815260200191505060405180910390f35b3480156104ec57600080fd5b506104f5610fec565b6040518082815260200191505060405180910390f35b60075481565b6000600654905090565b61055a828260006040519080825280601f01601f1916602001820160405280156105545781602001600182028038833980820191505090505b5061055e565b5050565b610566610ff2565b73ffffffffffffffffffffffffffffffffffffffff163373ffffffffffffffffffffffffffffffffffffffff161461059d57600080fd5b60006105aa848484611312565b60ff16146105f7577f4c32909dacbd327805328b1c62ab7cdcf4358ec40697441287bcb485472978ac836040518082815260200191505060405180910390a16105f283611442565b6106c4565b60006002836040516020018082805190602001908083835b60208310610632578051825260208201915060208101905060208303925061060f565b6001836020036101000a0380198251168184511680821785525050505050509050019150506040516020818303038152906040528051906020012060001c8161067757fe5b0690508060098190555061068b8482611624565b7fc13d60fe9dffdb6908d2d446cd18134373a51db0738ee04f296eeb9128121cbc816040518082815260200191505060405180910390a1505b505050565b600080600090506000623d0900905060006106e78360085484611acc565b90507f5902a87e2f61c98fadcab864e16010ae1cab745036ad291abdb59e953d05fb84816040518082815260200191505060405180910390a180935050505090565b60008060009054906101000a900473ffffffffffffffffffffffffffffffffffffffff1673ffffffffffffffffffffffffffffffffffffffff163373ffffffffffffffffffffffffffffffffffffffff161461078457600080fd5b6000600654905060006006819055503373ffffffffffffffffffffffffffffffffffffffff166108fc829081150290604051600060405180830381858888f193505050501580156107d9573d6000803e3d6000fd5b508091505090565b6000809054906101000a900473ffffffffffffffffffffffffffffffffffffffff1681565b600080600a60003373ffffffffffffffffffffffffffffffffffffffff1673ffffffffffffffffffffffffffffffffffffffff1681526020019081526020016000206003015490506000600a60003373ffffffffffffffffffffffffffffffffffffffff1673ffffffffffffffffffffffffffffffffffffffff168152602001908152602001600020600301819055503373ffffffffffffffffffffffffffffffffffffffff166108fc829081150290604051600060405180830381858888f193505050501580156108dc573d6000803e3d6000fd5b507f968e80feafa6538c69cee2cef98d42a17247b61ef7bbac50f81593687bcb105d816040518082815260200191505060405180910390a18091505090565b67016345785d8a00008034101561093157600080fd5b60008214806109405750600182145b610995576040517f08c379a00000000000000000000000000000000000000000000000000000000081526004018080602001828103825260248152602001806148ec6024913960400191505060405180910390fd5b6002340260065410156109f3576040517f08c379a00000000000000000000000000000000000000000000000000000000081526004018080602001828103825260298152602001806149506029913960400191505060405180910390fd5b346006600082825401925050819055506000339050610a106147cf565b600a60008373ffffffffffffffffffffffffffffffffffffffff1673ffffffffffffffffffffffffffffffffffffffff1681526020019081526020016000206040518060c001604052908160008201548152602001600182015481526020016002820154815260200160038201548152602001600482015481526020016005820154815250509050600181602001510181602001818152505083816080018181525050348160a001818152505080600a60008473ffffffffffffffffffffffffffffffffffffffff1673ffffffffffffffffffffffffffffffffffffffff168152602001908152602001600020600082015181600001556020820151816001015560408201518160020155606082015181600301556080820151816004015560a08201518160050155905050600b8290806001815401808255809150509060018203906000526020600020016000909192909190916101000a81548173ffffffffffffffffffffffffffffffffffffffff021916908373ffffffffffffffffffffffffffffffffffffffff16021790555050806020015181608001518260a0015160405160200180848152602001838152602001828152602001935050505060405160208183030381529060405280519060200120600a60008473ffffffffffffffffffffffffffffffffffffffff1673ffffffffffffffffffffffffffffffffffffffff16815260200190815260200160002060010154600a60008573ffffffffffffffffffffffffffffffffffffffff1673ffffffffffffffffffffffffffffffffffffffff16815260200190815260200160002060040154600a60008673ffffffffffffffffffffffffffffffffffffffff1673ffffffffffffffffffffffffffffffffffffffff168152602001908152602001600020600501546040516020018084815260200183815260200182815260200193505050506040516020818303038152906040528051906020012014610ce957fe5b610cfc600160f81b601060f81b17612067565b6000610d066106c9565b905082600c600083815260200190815260200160002060006101000a81548173ffffffffffffffffffffffffffffffffffffffff021916908373ffffffffffffffffffffffffffffffffffffffff160217905550600d8190806001815401808255809150509060018203906000526020600020016000909192909190915055507f11e78ef0b6fb2f780cc0fb53589e75ca2d3e52df9a78f6259fad7071437ec42c826040015186604051808381526020018281526020019250505060405180910390a15050505050565b60065481565b600080600080600080339050600a60008273ffffffffffffffffffffffffffffffffffffffff1673ffffffffffffffffffffffffffffffffffffffff16815260200190815260200160002060010154600a60008373ffffffffffffffffffffffffffffffffffffffff1673ffffffffffffffffffffffffffffffffffffffff16815260200190815260200160002060020154600a60008473ffffffffffffffffffffffffffffffffffffffff1673ffffffffffffffffffffffffffffffffffffffff16815260200190815260200160002060030154600a60008573ffffffffffffffffffffffffffffffffffffffff1673ffffffffffffffffffffffffffffffffffffffff16815260200190815260200160002060040154600a60008673ffffffffffffffffffffffffffffffffffffffff1673ffffffffffffffffffffffffffffffffffffffff1681526020019081526020016000206005015495509550955095509550509091929394565b600080600654905034600660008282540192505081905550806006541115610fa9577f030403df7327cd6c80c89472ccbd6f7140c448610d09537728faf707df4e06ec6006546040518082815260200191505060405180910390a1600654915050610fe9565b7fefc96dd315e8c91f062780b0960672eca194aabade9085bda24eaac5b46919876006546040518082815260200191505060405180910390a16006549150505b90565b60095481565b60008073ffffffffffffffffffffffffffffffffffffffff16600260009054906101000a900473ffffffffffffffffffffffffffffffffffffffff1673ffffffffffffffffffffffffffffffffffffffff16148061107a57506000611078600260009054906101000a900473ffffffffffffffffffffffffffffffffffffffff166123b2565b145b1561108b5761108960006123bd565b505b600260009054906101000a900473ffffffffffffffffffffffffffffffffffffffff1673ffffffffffffffffffffffffffffffffffffffff166338cc48316040518163ffffffff1660e01b8152600401602060405180830381600087803b1580156110f557600080fd5b505af1158015611109573d6000803e3d6000fd5b505050506040513d602081101561111f57600080fd5b810190808051906020019092919050505073ffffffffffffffffffffffffffffffffffffffff16600160009054906101000a900473ffffffffffffffffffffffffffffffffffffffff1673ffffffffffffffffffffffffffffffffffffffff161461126a57600260009054906101000a900473ffffffffffffffffffffffffffffffffffffffff1673ffffffffffffffffffffffffffffffffffffffff166338cc48316040518163ffffffff1660e01b8152600401602060405180830381600087803b1580156111ee57600080fd5b505af1158015611202573d6000803e3d6000fd5b505050506040513d602081101561121857600080fd5b8101908080519060200190929190505050600160006101000a81548173ffffffffffffffffffffffffffffffffffffffff021916908373ffffffffffffffffffffffffffffffffffffffff1602179055505b600160009054906101000a900473ffffffffffffffffffffffffffffffffffffffff1673ffffffffffffffffffffffffffffffffffffffff1663c281d19e6040518163ffffffff1660e01b815260040160206040518083038186803b1580156112d257600080fd5b505afa1580156112e6573d6000803e3d6000fd5b505050506040513d60208110156112fc57600080fd5b8101908080519060200190929190505050905090565b60007f4c000000000000000000000000000000000000000000000000000000000000008260008151811061134257fe5b602001015160f81c60f81b7effffffffffffffffffffffffffffffffffffffffffffffffffffffffffffff19161415806113d557507f5000000000000000000000000000000000000000000000000000000000000000826001815181106113a557fe5b602001015160f81c60f81b7effffffffffffffffffffffffffffffffffffffffffffffffffffffffffffff191614155b806114015750600160ff16826002815181106113ed57fe5b602001015160f81c60f81b60f81c60ff1614155b1561140f576001905061143b565b600061142483868661141f6123ce565b612470565b90508061143557600291505061143b565b60009150505b9392505050565b6000600c600083815260200190815260200160002060009054906101000a900473ffffffffffffffffffffffffffffffffffffffff1690506114826147cf565b600a60008373ffffffffffffffffffffffffffffffffffffffff1673ffffffffffffffffffffffffffffffffffffffff1681526020019081526020016000206040518060c0016040529081600082015481526020016001820154815260200160028201548152602001600382015481526020016004820154815260200160058201548152505090508060a001516006600082825403925050819055508060a0015181606001510181606001818152505060008160a001818152505080600a60008473ffffffffffffffffffffffffffffffffffffffff1673ffffffffffffffffffffffffffffffffffffffff168152602001908152602001600020600082015181600001556020820151816001015560408201518160020155606082015181600301556080820151816004015560a082015181600501559050507f53774d266fda52e575e4d97780621ab46648f09afc46c29a46fecd08085cb8bb82604051808273ffffffffffffffffffffffffffffffffffffffff1673ffffffffffffffffffffffffffffffffffffffff16815260200191505060405180910390a1505050565b6000600c600084815260200190815260200160002060009054906101000a900473ffffffffffffffffffffffffffffffffffffffff1690506116646147cf565b600a60008373ffffffffffffffffffffffffffffffffffffffff1673ffffffffffffffffffffffffffffffffffffffff1681526020019081526020016000206040518060c00160405290816000820154815260200160018201548152602001600282015481526020016003820154815260200160048201548152602001600582015481525050905082816080015114156118845760028160a0015102600660008282540392505081905550600181604001510181604001818152505060028160a001510281606001510181606001818152505060008160a00181815250503373ffffffffffffffffffffffffffffffffffffffff166108fc60028360a00151029081150290604051600060405180830381858888f1935050505015801561178f573d6000803e3d6000fd5b5080600a60008473ffffffffffffffffffffffffffffffffffffffff1673ffffffffffffffffffffffffffffffffffffffff168152602001908152602001600020600082015181600001556020820151816001015560408201518160020155606082015181600301556080820151816004015560a082015181600501559050507ff96487e30a30b4a606ced65a50f56a9bcb09bec6b68880d3411a797bda9d6c15826001604051808373ffffffffffffffffffffffffffffffffffffffff1673ffffffffffffffffffffffffffffffffffffffff168152602001821515151581526020019250505060405180910390a161197f565b60008160a001818152505080600a60008473ffffffffffffffffffffffffffffffffffffffff1673ffffffffffffffffffffffffffffffffffffffff168152602001908152602001600020600082015181600001556020820151816001015560408201518160020155606082015181600301556080820151816004015560a082015181600501559050507ff96487e30a30b4a606ced65a50f56a9bcb09bec6b68880d3411a797bda9d6c15826000604051808373ffffffffffffffffffffffffffffffffffffffff1673ffffffffffffffffffffffffffffffffffffffff168152602001821515151581526020019250505060405180910390a15b806040015181606001518260a0015160405160200180848152602001838152602001828152602001935050505060405160208183030381529060405280519060200120600a60008473ffffffffffffffffffffffffffffffffffffffff1673ffffffffffffffffffffffffffffffffffffffff16815260200190815260200160002060020154600a60008573ffffffffffffffffffffffffffffffffffffffff1673ffffffffffffffffffffffffffffffffffffffff16815260200190815260200160002060030154600a60008673ffffffffffffffffffffffffffffffffffffffff1673ffffffffffffffffffffffffffffffffffffffff168152602001908152602001600020600501546040516020018084815260200183815260200182815260200193505050506040516020818303038152906040528051906020012014611ac657fe5b50505050565b60008083118015611ade575060208311155b611ae757600080fd5b600a84029350606060016040519080825280601f01601f191660200182016040528015611b235781602001600182028038833980820191505090505b5090508360f81b81600081518110611b3757fe5b60200101907effffffffffffffffffffffffffffffffffffffffffffffffffffffffffffff1916908160001a905350606060206040519080825280601f01601f191660200182016040528015611b9c5781602001600182028038833980820191505090505b509050606060206040519080825280601f01601f191660200182016040528015611bd55781602001600182028038833980820191505090505b5090506000611be2612b1b565b905060208352424118600143034018602084015260208252806020830152606060206040519080825280601f01601f191660200182016040528015611c365781602001600182028038833980820191505090505b509050886020820152606060086040519080825280601f01601f191660200182016040528015611c755781602001600182028038833980820191505090505b509050611c888260186008846000612e3b565b50611c91614805565b60405180608001604052808781526020018881526020018681526020018481525090506000611cf66040518060400160405280600681526020017f72616e646f6d0000000000000000000000000000000000000000000000000000815250838c612e9a565b9050606060086040519080825280601f01601f191660200182016040528015611d2e5781602001600182028038833980820191505090505b50905060208401517f0100000000000000000000000000000000000000000000000000000000000000810460278301537e01000000000000000000000000000000000000000000000000000000000000810460268301537d010000000000000000000000000000000000000000000000000000000000810460258301537c0100000000000000000000000000000000000000000000000000000000810460248301537b01000000000000000000000000000000000000000000000000000000810460238301537a010000000000000000000000000000000000000000000000000000810460228301537901000000000000000000000000000000000000000000000000008104602183015378010000000000000000000000000000000000000000000000008104602083015350612054828285600160048110611e6d57fe5b6020020151600287600060048110611e8157fe5b60200201516040518082805190602001908083835b60208310611eb95780518252602082019150602081019050602083039250611e96565b6001836020036101000a038019825116818451168082178552505050505050905001915050602060405180830381855afa158015611efb573d6000803e3d6000fd5b5050506040513d6020811015611f1057600080fd5b810190808051906020019092919050505087600260048110611f2e57fe5b60200201516040516020018085805190602001908083835b60208310611f695780518252602082019150602081019050602083039250611f46565b6001836020036101000a03801982511681845116808217855250505050505090500184805190602001908083835b60208310611fba5780518252602082019150602081019050602083039250611f97565b6001836020036101000a03801982511681845116808217855250505050505090500183815260200182805190602001908083835b602083106120115780518252602082019150602081019050602083039250611fee565b6001836020036101000a03801982511681845116808217855250505050505090500194505050505060405160208183030381529060405280519060200120613209565b8199505050505050505050509392505050565b600073ffffffffffffffffffffffffffffffffffffffff16600260009054906101000a900473ffffffffffffffffffffffffffffffffffffffff1673ffffffffffffffffffffffffffffffffffffffff1614806120ee575060006120ec600260009054906101000a900473ffffffffffffffffffffffffffffffffffffffff166123b2565b145b156120ff576120fd60006123bd565b505b600260009054906101000a900473ffffffffffffffffffffffffffffffffffffffff1673ffffffffffffffffffffffffffffffffffffffff166338cc48316040518163ffffffff1660e01b8152600401602060405180830381600087803b15801561216957600080fd5b505af115801561217d573d6000803e3d6000fd5b505050506040513d602081101561219357600080fd5b810190808051906020019092919050505073ffffffffffffffffffffffffffffffffffffffff16600160009054906101000a900473ffffffffffffffffffffffffffffffffffffffff1673ffffffffffffffffffffffffffffffffffffffff16146122de57600260009054906101000a900473ffffffffffffffffffffffffffffffffffffffff1673ffffffffffffffffffffffffffffffffffffffff166338cc48316040518163ffffffff1660e01b8152600401602060405180830381600087803b15801561226257600080fd5b505af1158015612276573d6000803e3d6000fd5b505050506040513d602081101561228c57600080fd5b8101908080519060200190929190505050600160006101000a81548173ffffffffffffffffffffffffffffffffffffffff021916908373ffffffffffffffffffffffffffffffffffffffff1602179055505b600160009054906101000a900473ffffffffffffffffffffffffffffffffffffffff1673ffffffffffffffffffffffffffffffffffffffff1663688dcfd7826040518263ffffffff1660e01b815260040180827effffffffffffffffffffffffffffffffffffffffffffffffffffffffffffff19167effffffffffffffffffffffffffffffffffffffffffffffffffffffffffffff19168152602001915050600060405180830381600087803b15801561239757600080fd5b505af11580156123ab573d6000803e3d6000fd5b5050505050565b6000813b9050919050565b60006123c7613225565b9050919050565b606060038054600181600116156101000203166002900480601f0160208091040260200160405190810160405280929190818152602001828054600181600116156101000203166002900480156124665780601f1061243b57610100808354040283529160200191612466565b820191906000526020600020905b81548152906001019060200180831161244957829003601f168201915b5050505050905090565b600080602060028760458151811061248457fe5b602001015160f81c60f81b60f81c60ff1601604401019050606060206040519080825280601f01601f1916602001820160405280156124d25781602001600182028038833980820191505090505b5090506124e487836020846000612e3b565b50600284876040516020018083805190602001908083835b6020831061251f57805182526020820191506020810190506020830392506124fc565b6001836020036101000a038019825116818451168082178552505050505050905001828152602001925050506040516020818303038152906040526040518082805190602001908083835b6020831061258d578051825260208201915060208101905060208303925061256a565b6001836020036101000a038019825116818451168082178552505050505050905001915050602060405180830381855afa1580156125cf573d6000803e3d6000fd5b5050506040513d60208110156125e457600080fd5b8101908080519060200190929190505050604051602001808281526020019150506040516020818303038152906040528051906020012081805190602001201461263357600092505050612b13565b6060600288600160498601018151811061264957fe5b602001015160f81c60f81b60f81c60ff16016040519080825280601f01601f19166020018201604052801561268d5781602001600182028038833980820191505090505b5090506126a288604985018351846000612e3b565b5061276d6002826040518082805190602001908083835b602083106126dc57805182526020820191506020810190506020830392506126b9565b6001836020036101000a038019825116818451168082178552505050505050905001915050602060405180830381855afa15801561271e573d6000803e3d6000fd5b5050506040513d602081101561273357600080fd5b8101908080519060200190929190505050878a600860208801018151811061275757fe5b602001015160f81c60f81b60f81c60ff1661377c565b61277d5760009350505050612b13565b606060296040519080825280601f01601f1916602001820160405280156127b35781602001600182028038833980820191505090505b5090506127c889602086016029846000612e3b565b506060604080519080825280601f01601f1916602001820160405280156127fe5781602001600182028038833980820191505090505b50905060006041845160296020890101010190506128248b604083036040856000612e3b565b5060006002836040518082805190602001908083835b6020831061285d578051825260208201915060208101905060208303925061283a565b6001836020036101000a038019825116818451168082178552505050505050905001915050602060405180830381855afa15801561289f573d6000803e3d6000fd5b5050506040513d60208110156128b457600080fd5b8101908080519060200190929190505050905083816040516020018083805190602001908083835b602083106128ff57805182526020820191506020810190506020830392506128dc565b6001836020036101000a0380198251168184511680821785525050505050509050018281526020019250505060405160208183030381529060405280519060200120600460008d815260200190815260200160002054141561297757600460008c815260200190815260200160002060009055612987565b6000975050505050505050612b13565b606060496040519080825280601f01601f1916602001820160405280156129bd5781602001600182028038833980820191505090505b5090506129cf8d896049846000612e3b565b50612a786002826040518082805190602001908083835b60208310612a0957805182526020820191506020810190506020830392506129e6565b6001836020036101000a038019825116818451168082178552505050505050905001915050602060405180830381855afa158015612a4b573d6000803e3d6000fd5b5050506040513d6020811015612a6057600080fd5b8101908080519060200190929190505050878661382c565b612a8d57600098505050505050505050612b13565b6005600083815260200190815260200160002060009054906101000a900460ff16612ae757612abc8d846139ea565b6005600084815260200190815260200160002060006101000a81548160ff0219169083151502179055505b6005600083815260200190815260200160002060009054906101000a900460ff16985050505050505050505b949350505050565b60008073ffffffffffffffffffffffffffffffffffffffff16600260009054906101000a900473ffffffffffffffffffffffffffffffffffffffff1673ffffffffffffffffffffffffffffffffffffffff161480612ba357506000612ba1600260009054906101000a900473ffffffffffffffffffffffffffffffffffffffff166123b2565b145b15612bb457612bb260006123bd565b505b600260009054906101000a900473ffffffffffffffffffffffffffffffffffffffff1673ffffffffffffffffffffffffffffffffffffffff166338cc48316040518163ffffffff1660e01b8152600401602060405180830381600087803b158015612c1e57600080fd5b505af1158015612c32573d6000803e3d6000fd5b505050506040513d6020811015612c4857600080fd5b810190808051906020019092919050505073ffffffffffffffffffffffffffffffffffffffff16600160009054906101000a900473ffffffffffffffffffffffffffffffffffffffff1673ffffffffffffffffffffffffffffffffffffffff1614612d9357600260009054906101000a900473ffffffffffffffffffffffffffffffffffffffff1673ffffffffffffffffffffffffffffffffffffffff166338cc48316040518163ffffffff1660e01b8152600401602060405180830381600087803b158015612d1757600080fd5b505af1158015612d2b573d6000803e3d6000fd5b505050506040513d6020811015612d4157600080fd5b8101908080519060200190929190505050600160006101000a81548173ffffffffffffffffffffffffffffffffffffffff021916908373ffffffffffffffffffffffffffffffffffffffff1602179055505b600160009054906101000a900473ffffffffffffffffffffffffffffffffffffffff1673ffffffffffffffffffffffffffffffffffffffff1663abaa5f3e6040518163ffffffff1660e01b815260040160206040518083038186803b158015612dfb57600080fd5b505afa158015612e0f573d6000803e3d6000fd5b505050506040513d6020811015612e2557600080fd5b8101908080519060200190929190505050905090565b6060600082850190508084511015612e5257600080fd5b600086602001905060008460200190505b868860200101821015612e8b5781890151808288015250602082019150602081019050612e63565b85935050505095945050505050565b60008073ffffffffffffffffffffffffffffffffffffffff16600260009054906101000a900473ffffffffffffffffffffffffffffffffffffffff1673ffffffffffffffffffffffffffffffffffffffff161480612f2257506000612f20600260009054906101000a900473ffffffffffffffffffffffffffffffffffffffff166123b2565b145b15612f3357612f3160006123bd565b505b600260009054906101000a900473ffffffffffffffffffffffffffffffffffffffff1673ffffffffffffffffffffffffffffffffffffffff166338cc48316040518163ffffffff1660e01b8152600401602060405180830381600087803b158015612f9d57600080fd5b505af1158015612fb1573d6000803e3d6000fd5b505050506040513d6020811015612fc757600080fd5b810190808051906020019092919050505073ffffffffffffffffffffffffffffffffffffffff16600160009054906101000a900473ffffffffffffffffffffffffffffffffffffffff1673ffffffffffffffffffffffffffffffffffffffff161461311257600260009054906101000a900473ffffffffffffffffffffffffffffffffffffffff1673ffffffffffffffffffffffffffffffffffffffff166338cc48316040518163ffffffff1660e01b8152600401602060405180830381600087803b15801561309657600080fd5b505af11580156130aa573d6000803e3d6000fd5b505050506040513d60208110156130c057600080fd5b8101908080519060200190929190505050600160006101000a81548173ffffffffffffffffffffffffffffffffffffffff021916908373ffffffffffffffffffffffffffffffffffffffff1602179055505b6060600460405190808252806020026020018201604052801561314957816020015b60608152602001906001900390816131345790505b5090508360006004811061315957fe5b60200201518160008151811061316b57fe5b60200260200101819052508360016004811061318357fe5b60200201518160018151811061319557fe5b6020026020010181905250836002600481106131ad57fe5b6020020151816002815181106131bf57fe5b6020026020010181905250836003600481106131d757fe5b6020020151816003815181106131e957fe5b60200260200101819052506131ff858285613e02565b9150509392505050565b8060046000848152602001908152602001600020819055505050565b600080613245731d3b2638a7cc9f2cb3d298a3da7a90b67e5506ed6123b2565b11156132e757731d3b2638a7cc9f2cb3d298a3da7a90b67e5506ed600260006101000a81548173ffffffffffffffffffffffffffffffffffffffff021916908373ffffffffffffffffffffffffffffffffffffffff1602179055506132de6040518060400160405280600b81526020017f6574685f6d61696e6e6574000000000000000000000000000000000000000000815250614368565b60019050613779565b600061330673c03a2615d5efaf5f49f60b7bb6583eaec212fdf16123b2565b11156133a85773c03a2615d5efaf5f49f60b7bb6583eaec212fdf1600260006101000a81548173ffffffffffffffffffffffffffffffffffffffff021916908373ffffffffffffffffffffffffffffffffffffffff16021790555061339f6040518060400160405280600c81526020017f6574685f726f707374656e330000000000000000000000000000000000000000815250614368565b60019050613779565b60006133c773b7a07bcf2ba2f2703b24c0691b5278999c59ac7e6123b2565b11156134695773b7a07bcf2ba2f2703b24c0691b5278999c59ac7e600260006101000a81548173ffffffffffffffffffffffffffffffffffffffff021916908373ffffffffffffffffffffffffffffffffffffffff1602179055506134606040518060400160405280600981526020017f6574685f6b6f76616e0000000000000000000000000000000000000000000000815250614368565b60019050613779565b600061348873146500cfd35b22e4a392fe0adc06de1a1368ed486123b2565b111561352a5773146500cfd35b22e4a392fe0adc06de1a1368ed48600260006101000a81548173ffffffffffffffffffffffffffffffffffffffff021916908373ffffffffffffffffffffffffffffffffffffffff1602179055506135216040518060400160405280600b81526020017f6574685f72696e6b656279000000000000000000000000000000000000000000815250614368565b60019050613779565b600061354973a2998efd205fb9d4b4963afb70778d6354ad3a416123b2565b11156135eb5773a2998efd205fb9d4b4963afb70778d6354ad3a41600260006101000a81548173ffffffffffffffffffffffffffffffffffffffff021916908373ffffffffffffffffffffffffffffffffffffffff1602179055506135e26040518060400160405280600a81526020017f6574685f676f65726c6900000000000000000000000000000000000000000000815250614368565b60019050613779565b600061360a736f485c8bf6fc43ea212e93bbf8ce046c7f1cb4756123b2565b111561366e57736f485c8bf6fc43ea212e93bbf8ce046c7f1cb475600260006101000a81548173ffffffffffffffffffffffffffffffffffffffff021916908373ffffffffffffffffffffffffffffffffffffffff16021790555060019050613779565b600061368d7320e12a1f859b3feae5fb2a0a32c18f5a65555bbf6123b2565b11156136f1577320e12a1f859b3feae5fb2a0a32c18f5a65555bbf600260006101000a81548173ffffffffffffffffffffffffffffffffffffffff021916908373ffffffffffffffffffffffffffffffffffffffff16021790555060019050613779565b60006137107351efaf4c8b3c9afbd5ab9f4bbc82784ab6ef8faa6123b2565b1115613774577351efaf4c8b3c9afbd5ab9f4bbc82784ab6ef8faa600260006101000a81548173ffffffffffffffffffffffffffffffffffffffff021916908373ffffffffffffffffffffffffffffffffffffffff16021790555060019050613779565b600090505b90565b600080600190508284511461379057600080fd5b60008090505b83811015613820578481815181106137aa57fe5b602001015160f81c60f81b7effffffffffffffffffffffffffffffffffffffffffffffffffffffffffffff19168682602081106137e357fe5b1a60f81b7effffffffffffffffffffffffffffffffffffffffffffffffffffffffffffff19161461381357600091505b8080600101915050613796565b50809150509392505050565b6000806000806000606060206040519080825280601f01601f19166020018201604052801561386a5781602001600182028038833980820191505090505b509050600060208960038151811061387e57fe5b602001015160f81c60f81b60f81c60ff160360040190506138a489826020856000612e3b565b9150606060206040519080825280601f01601f1916602001820160405280156138dc5781602001600182028038833980820191505090505b5090506022820191506139188a60208c60018603815181106138fa57fe5b602001015160f81c60f81b60f81c60ff160384016020846000612e3b565b905060208301519450602081015193506139358b601b8787614382565b80975081985050508573ffffffffffffffffffffffffffffffffffffffff16898051906020012060001c73ffffffffffffffffffffffffffffffffffffffff16141561398b5760019750505050505050506139e3565b6139988b601c8787614382565b80975081985050508573ffffffffffffffffffffffffffffffffffffffff16898051906020012060001c73ffffffffffffffffffffffffffffffffffffffff16149750505050505050505b9392505050565b60008060606002856001860181518110613a0057fe5b602001015160f81c60f81b60f81c60ff16016040519080825280601f01601f191660200182016040528015613a445781602001600182028038833980820191505090505b509050613a5685858351846000612e3b565b506060604080519080825280601f01601f191660200182016040528015613a8c5781602001600182028038833980820191505090505b509050613a9f8660046040846000612e3b565b50606060626040519080825280601f01601f191660200182016040528015613ad65781602001600182028038833980820191505090505b509050600160f81b81600081518110613aeb57fe5b60200101907effffffffffffffffffffffffffffffffffffffffffffffffffffffffffffff1916908160001a905350613b2c87604188036041846001612e3b565b5060606040518060400160405280602081526020017ffd94fa71bc0ba10d39d464d0d8f465efeef0a2764e3887fcc9df41ded20f505c8152509050613b778160006020856042612e3b565b50613c206002836040518082805190602001908083835b60208310613bb15780518252602082019150602081019050602083039250613b8e565b6001836020036101000a038019825116818451168082178552505050505050905001915050602060405180830381855afa158015613bf3573d6000803e3d6000fd5b5050506040513d6020811015613c0857600080fd5b8101908080519060200190929190505050858561382c565b945084613c3557600095505050505050613dfc565b6060604051806060016040528060408152602001614910604091399050606060426040519080825280601f01601f191660200182016040528015613c885781602001600182028038833980820191505090505b50905060fe60f81b81600081518110613c9d57fe5b60200101907effffffffffffffffffffffffffffffffffffffffffffffffffffffffffffff1916908160001a905350613cdc8a60036041846001612e3b565b50606060028b604581518110613cee57fe5b602001015160f81c60f81b60f81c60ff16016040519080825280601f01601f191660200182016040528015613d325781602001600182028038833980820191505090505b509050613d458b60448351846000612e3b565b50613dee6002836040518082805190602001908083835b60208310613d7f5780518252602082019150602081019050602083039250613d5c565b6001836020036101000a038019825116818451168082178552505050505050905001915050602060405180830381855afa158015613dc1573d6000803e3d6000fd5b5050506040513d6020811015613dd657600080fd5b8101908080519060200190929190505050828561382c565b975087985050505050505050505b92915050565b60008073ffffffffffffffffffffffffffffffffffffffff16600260009054906101000a900473ffffffffffffffffffffffffffffffffffffffff1673ffffffffffffffffffffffffffffffffffffffff161480613e8a57506000613e88600260009054906101000a900473ffffffffffffffffffffffffffffffffffffffff166123b2565b145b15613e9b57613e9960006123bd565b505b600260009054906101000a900473ffffffffffffffffffffffffffffffffffffffff1673ffffffffffffffffffffffffffffffffffffffff166338cc48316040518163ffffffff1660e01b8152600401602060405180830381600087803b158015613f0557600080fd5b505af1158015613f19573d6000803e3d6000fd5b505050506040513d6020811015613f2f57600080fd5b810190808051906020019092919050505073ffffffffffffffffffffffffffffffffffffffff16600160009054906101000a900473ffffffffffffffffffffffffffffffffffffffff1673ffffffffffffffffffffffffffffffffffffffff161461407a57600260009054906101000a900473ffffffffffffffffffffffffffffffffffffffff1673ffffffffffffffffffffffffffffffffffffffff166338cc48316040518163ffffffff1660e01b8152600401602060405180830381600087803b158015613ffe57600080fd5b505af1158015614012573d6000803e3d6000fd5b505050506040513d602081101561402857600080fd5b8101908080519060200190929190505050600160006101000a81548173ffffffffffffffffffffffffffffffffffffffff021916908373ffffffffffffffffffffffffffffffffffffffff1602179055505b6000600160009054906101000a900473ffffffffffffffffffffffffffffffffffffffff1673ffffffffffffffffffffffffffffffffffffffff16632ef3accc86856040518363ffffffff1660e01b81526004018080602001838152602001828103825284818151815260200191508051906020019080838360005b838110156141115780820151818401526020810190506140f6565b50505050905090810190601f16801561413e5780820380516001836020036101000a031916815260200191505b509350505050602060405180830381600087803b15801561415e57600080fd5b505af1158015614172573d6000803e3d6000fd5b505050506040513d602081101561418857600080fd5b81019080805190602001909291905050509050823a02670de0b6b3a7640000018111156141bb576000801b915050614361565b60606141c6856143c6565b9050600160009054906101000a900473ffffffffffffffffffffffffffffffffffffffff1673ffffffffffffffffffffffffffffffffffffffff1663c55c1cb68360008985896040518663ffffffff1660e01b8152600401808581526020018060200180602001848152602001838103835286818151815260200191508051906020019080838360005b8381101561426b578082015181840152602081019050614250565b50505050905090810190601f1680156142985780820380516001836020036101000a031916815260200191505b50838103825285818151815260200191508051906020019080838360005b838110156142d15780820151818401526020810190506142b6565b50505050905090810190601f1680156142fe5780820380516001836020036101000a031916815260200191505b5096505050505050506020604051808303818588803b15801561432057600080fd5b505af1158015614334573d6000803e3d6000fd5b50505050506040513d602081101561434b57600080fd5b8101908080519060200190929190505050925050505b9392505050565b806003908051906020019061437e92919061482c565b5050565b60008060008060405188815287602082015286604082015285606082015260208160808360006001610bb8f192508051915050818193509350505094509492505050565b60606143d0614446565b6143d86148ac565b6143e481610400614452565b6143ed8161449c565b60008090505b835181101561442f5761442284828151811061440b57fe5b6020026020010151836144aa90919063ffffffff16565b80806001019150506143f3565b50614439816144cf565b8060000151915050919050565b60405180590338823950565b600081905060006020828161446357fe5b061461447c576020818161447357fe5b06602003810190505b808360200181815250506040518084526000815281810160405250505050565b6144a78160046144dd565b50565b6144b782600283516144fe565b6144ca818361463e90919063ffffffff16565b505050565b6144da8160076144dd565b50565b6144fa601f60058360ff16901b17836146e990919063ffffffff16565b5050565b6017811161452a576145258160058460ff16901b60ff1617846146e990919063ffffffff16565b614639565b60ff811161456b5761454f601860058460ff16901b17846146e990919063ffffffff16565b614565816001856147299092919063ffffffff16565b50614638565b61ffff81116145ad57614591601960058460ff16901b17846146e990919063ffffffff16565b6145a7816002856147299092919063ffffffff16565b50614637565b63ffffffff81116145f1576145d5601a60058460ff16901b17846146e990919063ffffffff16565b6145eb816004856147299092919063ffffffff16565b50614636565b67ffffffffffffffff81116146355761461d601b60058460ff16901b17846146e990919063ffffffff16565b614633816008856147299092919063ffffffff16565b505b5b5b5b5b505050565b6146466148ac565b826020015183600001515183510111156146765761467583600261466f86602001518651614790565b026147ac565b5b60008060008451905085518051602081830101945086518101825260208701935050505b602081106146bd578151835260208301925060208201915060208103905061469a565b60006001826020036101000a039050801983511681855116818117865250508694505050505092915050565b8160200151600183600001515101111561470f5761470e8260028460200151026147ac565b5b815180516020818301018381536001820183525050505050565b6147316148ac565b83602001518460000151518301111561475f5761475e846002614758876020015186614790565b026147ac565b5b60006001836101000a0390508451805184818301018684198251161781528582018352505050849150509392505050565b6000818311156147a2578290506147a6565b8190505b92915050565b6060826000015190506147bf8383614452565b6147c9838261463e565b50505050565b6040518060c001604052806000815260200160008152602001600081526020016000815260200160008152602001600081525090565b60405180608001604052806004905b60608152602001906001900390816148145790505090565b828054600181600116156101000203166002900490600052602060002090601f016020900481019282601f1061486d57805160ff191683800117855561489b565b8280016001018555821561489b579182015b8281111561489a57825182559160200191906001019061487f565b5b5090506148a891906148c6565b5090565b604051806040016040528060608152602001600081525090565b6148e891905b808211156148e45760008160009055506001016148cc565b5090565b9056fe536964652068617320746f20626520656974686572204865616473206f72205461696c737fb956469c5c9b89840d55b43537e66a98dd4811ea0a27224272c2e5622911e8537a2f8e86a46baec82864e98dd01e9ccc2f8bc5dfc9cbe5a91a290498dd96e4436f6e74726163742062616c616e636520746f6f20736d616c6c20746f20636f76657220612077696ea265627a7a72315820cd3a5c29ad7ac926ae574aa6c71d61f1c88ef2e19a74ba71ca95f528dc4d17d064736f6c634300050c0032",
  "source": "pragma solidity 0.5.12;\r\nimport \"./Ownable.sol\";\r\nimport \"./provableAPI.sol\";\r\n//import \"github.com/provable-things/ethereum-api/provableAPI.sol\";\r\n\r\ncontract Cointoss is Ownable, usingProvable{\r\n\t\r\n\tuint public balance;\r\n\tuint public testInt;\r\n\t\r\n\tuint256 NUM_RANDOM_BYTES_REQUESTED = 1;\r\n\tuint public latestNumber;\r\n\t\r\n\tstruct BetSummary {\r\n      uint id;\r\n\t  uint totalBets;\r\n      uint totalWins;\r\n\t  uint profit;\r\n\t  uint256 currentBetSide;\r\n\t  uint currentBetAmount;\r\n    }\r\n\t\r\n\t\r\n\tmapping (address => BetSummary) private bets;\r\n    address[] private gamblers;\r\n\t\r\n\tmapping (bytes32 => address) private query2address;\r\n    bytes32[] private oracleQueries;\r\n\r\n    modifier costs(uint cost){\r\n        require(msg.value >= cost);\r\n        _;\r\n    }\r\n\t\r\n\tevent betAdded(uint betNumber, uint256 side);\r\n\tevent betResolved(address gambler, bool win);\r\n\tevent topUpSuccessful(uint newBalance);\r\n\tevent topUpUnsuccessful(uint newBalance);\r\n\tevent logNewProvableQuery(string description);\r\n\tevent generatedRandomNumber(uint256 randomNumber);\r\n\tevent profitWithdrawn(uint amount);\r\n\tevent LogNewProvableQuery(bytes32 queryId);\r\n\tevent proofVerificationFailed(bytes32 queryId);\r\n\tevent betReverted(address gambler);\r\n\t\r\n\t//event testowy(address n1, uint256 n2);\r\n\t//event testowy2(address n1, uint256 n2);\r\n\r\n\tfunction getBalance() public view returns (uint){\r\n\t\treturn balance;\r\n\t}\r\n    \r\n\t\r\n\tfunction topUp() public payable returns (uint) {\r\n\t\tuint oldBalance = balance;\r\n\t\tbalance += msg.value;\r\n\t\tif (balance > oldBalance) {\r\n\t\t\temit topUpSuccessful(balance);\r\n\t\t\treturn balance;\r\n\t\t}\r\n\t\temit topUpUnsuccessful(balance);\r\n\t\treturn balance;\r\n   }\r\n\t\r\n\t\r\n/* \tfunction random() public view returns (uint) {\r\n\t\treturn now % 2;\r\n\t} */\r\n\t\r\n\t\r\n\tfunction random() payable public returns (bytes32) {\r\n\t\tuint256 QUERY_EXECUTION_DELAY = 0;\r\n\t\tuint256 GAS_FOR_CALLBACK = 4000000;\r\n\t\tbytes32 queryId = provable_newRandomDSQuery(QUERY_EXECUTION_DELAY, NUM_RANDOM_BYTES_REQUESTED, GAS_FOR_CALLBACK);\r\n\t\temit LogNewProvableQuery(queryId);\r\n\t\treturn queryId;\r\n\t}\r\n\t\r\n\t\r\n \tfunction withdrawAll() public onlyOwner returns(uint) {\r\n       uint toTransfer = balance;\r\n       balance = 0;\r\n       msg.sender.transfer(toTransfer);\r\n       return toTransfer;\r\n    }\r\n\t\r\n\t\r\n\tfunction withdrawProfit() public returns(uint) {\r\n       uint toTransfer = bets[msg.sender].profit;\r\n       bets[msg.sender].profit = 0;\r\n       msg.sender.transfer(toTransfer);\r\n\t   emit profitWithdrawn(toTransfer);\r\n       return toTransfer;\r\n    }\r\n   \r\n\t\r\n  \tfunction createBet(uint256 side) public payable costs(100000000000000000 wei)  {\r\n\t\trequire((side == 0 || side  == 1), \"Side has to be either Heads or Tails\");\r\n\t\trequire(balance >= msg.value*2, 'Contract balance too small to cover a win');\r\n\t\t\r\n\t\tbalance += msg.value;\r\n\t\taddress gambler = msg.sender;\r\n  \t\tBetSummary memory newBetSummary = bets[gambler];\r\n\t\tnewBetSummary.totalBets = newBetSummary.totalBets + 1;\r\n\t\tnewBetSummary.currentBetSide = side;\r\n\t\tnewBetSummary.currentBetAmount = msg.value;\r\n\t\t\r\n        bets[gambler] = newBetSummary;\r\n\t\tgamblers.push(gambler);\r\n\t\t\r\n\t\tassert(\r\n            keccak256(\r\n                abi.encodePacked(\r\n                    bets[gambler].totalBets,\r\n                    bets[gambler].currentBetSide\r\n                    , bets[gambler].currentBetAmount\r\n                )\r\n            )\r\n            ==\r\n            keccak256(\r\n                abi.encodePacked(\r\n                    newBetSummary.totalBets,\r\n                    newBetSummary.currentBetSide\r\n                    , newBetSummary.currentBetAmount\r\n                )\r\n            )\r\n        );  \r\n\t\t\r\n\t\t//bytes32 queryId = testRandom();\r\n\t\tprovable_setProof(proofType_TLSNotary | proofStorage_IPFS);\r\n\t\tbytes32 queryId = random();\r\n\t\tquery2address[queryId] = gambler;\r\n\t\toracleQueries.push(queryId);\r\n\t\t\r\n\t\temit betAdded(newBetSummary.totalWins, side);\r\n\t}  \r\n\r\n\t\r\n\tfunction getBetSummary() public view returns(uint totalBets, uint totalWins, uint profit, uint256 currentBetSide, uint currentBetAmount) {\r\n\t\taddress gambler = msg.sender;\r\n\t\treturn (bets[gambler].totalBets, bets[gambler].totalWins, bets[gambler].profit, bets[gambler].currentBetSide, bets[gambler].currentBetAmount);\r\n\t}\r\n\r\n\r\n\tfunction __callback(bytes32 _queryId, string memory _result, bytes memory _proof) public {\r\n\t\trequire(msg.sender == provable_cbAddress());\r\n\t\tif (provable_randomDS_proofVerify__returnCode(_queryId, _result, _proof) != 0) {\r\n\t\t\temit proofVerificationFailed(_queryId);\r\n            revertBet(_queryId);\r\n        } else {\r\n\t\t\tuint256 randomNumber = uint(keccak256(abi.encodePacked(_result))) % 2;\r\n\t\t\tlatestNumber = randomNumber;\r\n\t\t\tresolveBet(_queryId, randomNumber);\t\r\n\t\t\temit generatedRandomNumber(randomNumber);\r\n\t\t}\r\n\t}\r\n\t\r\n\t\r\n\tfunction resolveBet(bytes32 queryId, uint256 tossResult) private {\r\n\t\taddress gambler = query2address[queryId];\r\n\t\tBetSummary memory existingBetSummary = bets[gambler];\r\n\t\t\r\n\t\tif(existingBetSummary.currentBetSide == tossResult)\t{\r\n\t\t\tbalance -= existingBetSummary.currentBetAmount*2;\r\n\t\t\texistingBetSummary.totalWins = existingBetSummary.totalWins + 1;\r\n\t\t\texistingBetSummary.profit = existingBetSummary.profit + existingBetSummary.currentBetAmount*2;\r\n\t\t\texistingBetSummary.currentBetAmount = 0;\r\n\t\t\tmsg.sender.transfer(existingBetSummary.currentBetAmount*2);\r\n\t\t\tbets[gambler] = existingBetSummary;\r\n\t\t\temit betResolved(gambler, true);\r\n\t\t}\r\n\t\telse {\t\r\n\t\t\texistingBetSummary.currentBetAmount = 0;\t\r\n\t\t\tbets[gambler] = existingBetSummary;\r\n\t\t\temit betResolved(gambler, false);\r\n\t\t}\r\n\t\t\r\n \t\tassert(\r\n            keccak256(\r\n                abi.encodePacked(\r\n                    bets[gambler].totalWins,\r\n                    bets[gambler].profit,\r\n                    bets[gambler].currentBetAmount\r\n                )\r\n            )\r\n            ==\r\n            keccak256(\r\n                abi.encodePacked(\r\n                    existingBetSummary.totalWins,\r\n                    existingBetSummary.profit,\r\n                    existingBetSummary.currentBetAmount\r\n                )\r\n            )\r\n        );  \r\n   \r\n\t}\r\n\t\r\n\tfunction revertBet(bytes32 queryId) private {\r\n\t\taddress gambler = query2address[queryId];\r\n\t\tBetSummary memory existingBetSummary = bets[gambler];\r\n\t\tbalance -= existingBetSummary.currentBetAmount;\r\n\t\texistingBetSummary.profit = existingBetSummary.profit + existingBetSummary.currentBetAmount;\r\n\t\texistingBetSummary.currentBetAmount = 0;\r\n\t\tbets[gambler] = existingBetSummary;\r\n\t\temit betReverted(gambler);\r\n\t}\r\n\t\r\n\t\r\n/* \tfunction testRandom() public returns (bytes32) {\r\n\t\tbytes32 queryId = bytes32(keccak256(abi.encodePacked(msg.sender)));\r\n\t\t__callback(queryId, \"1\", bytes(\"test\"));\r\n\t\treturn queryId;\r\n\t} */\r\n\t\r\n\t\r\n\t\r\n}",
  "sourcePath": "D:/truffle/cointossdapp/cointoss3/contracts/Cointoss.sol",
  "compiler": {
    "name": "solc",
    "version": "0.5.12+commit.7709ece9.Emscripten.clang"
  },
  "schemaVersion": "3.0.22",
  "updatedAt": "2021-01-28T19:10:17.519Z",
  "networkType": "ethereum",
  "devdoc": {
    "methods": {
      "__callback(bytes32,string)": {
        "details": "The following `__callback` functions are just placeholders ideally     meant to be defined in child contract when proofs are used.     The function bodies simply silence compiler warnings."
      }
    }
  },
  "userdoc": {
    "methods": {}
  }
}